:020000040800F2
:10000000C00D00200101000893260008F11D000822
:1000100091260008C5070008912C00080000000088
:1000200000000000000000000000000001270008A0
:100030002D0800080000000095260008552A000839
:100040001B0100081B0100081B0100081B01000820
:100050001B0100081B0100081B0100081B01000810
:100060001B0100081B0100082F0800081B010008E5
:100070001B0100081B0100081B0100081B010008F0
:100080001B0100081B0100081B0100081B010008E0
:100090001B0100081B0100081B01000835080008AF
:1000A0001B0100081B0100081B0100081B010008C0
:1000B0001B0100081B0100081B0100081B010008B0
:1000C0001B0100081B0100081B0100081B010008A0
:1000D0001B0100081B0100081B0100081B01000890
:1000E0001B0100081B0100081B010008DFF80CD0F1
:1000F00000F060FA004800473D2E0008C00D0020C7
:100100000648804706480047FEE7FEE7FEE7FEE7B1
:10011000FEE7FEE7FEE7FEE7FEE7FEE7B92A000896
:10012000ED000008202A04DB203A21FA02F0002129
:10013000704721FA02F3D040C2F1200291400843F7
:1001400019467047D2B201E000F8012B491EFBD2DC
:1001500070470022F6E710B513460A4604461946D2
:10016000FFF7F0FF204610BDF0B480EA0102D40F83
:100170004200B2EB410F02D20246084611464A0045
:1001800042D0C30DDDB2C1F3C752AD1A202D35DA0E
:10019000C1F3160141F4000204B15242C5F1200638
:1001A00002FA06F12A411044B3EBD05F23D0C4B168
:1001B000012DA0EBC35009DCF0BC4FF0004202EA75
:1001C000C352DBB200F5000000F069B9400000F155
:1001D000807000EBC350A0F1807040EAD1704900FC
:1001E00009E0490841EAC071A0EBC35000F50000E6
:1001F000400800EBC350F0BC00F048B96142012256
:1002000002EB4101001BF6E7F0BC704781F00041B2
:10021000AAE780F00040A7E780EA010210B502F0EB
:100220000043400022D04A001FD0010E01EB1261B2
:10023000C0F35600C2F3560240F4000042F400023C
:10024000A0FB022000047F39140400D0401C50EAB7
:10025000124001D44000491EC2B20C0604EBD0107B
:10026000401C4008802A02D003E0002010BD20F08E
:100270000100002900DA0020184310BD2DE9FE4FCF
:1002800081EA030404F0004421F0004100944FF09F
:10029000000B23F0004350EA01045ED052EA03044D
:1002A0005BD0C3F30A54C1F30A552C44A4F2F334CF
:1002B0000194A0FB0254C1F3130141F48011C3F374
:1002C000130343F4801301FB024400FB034E840A32
:1002D000970A44EA815447EA8357A4FB07680295CA
:1002E0008D0A05FB07854FEA932C04FB0C54270568
:1002F000029D4FEA065847EA1637B5EB08056EEB44
:10030000070C870E920E47EA811742EA8312A7FB79
:100310000201B6EB0B0164EB00042B0D43EA0C3336
:100320005E1844EB1C50DA465146E7FB0201C5F368
:1003300013044FEA0B3343EA14534FEA0432019C8F
:1003400043EA0603A4F10C040294009CCDE900B436
:1003500000F0E2F803B0BDE8F08F00200146F9E7B5
:1003600070B521F0004303430CD0C1F30A550024BB
:10037000D5EB040564EB0403D617AD1AB34102DBD9
:100380000020014670BD201841EB025170BDC10F25
:1003900080EAE0700844CA079623002100F07FB885
:1003A00096230022114600F07AB800F0004220F0B7
:1003B0000040C10DC0F3160040F400007F2901DAAF
:1003C00000207047962903DCC1F19601C84001E086
:1003D00096398840002AF4D04042704720F000400F
:1003E000C10DC0F3160040F400007F2901DA00209F
:1003F0007047962903DCC1F19601C84070479639D1
:100400008840704700F0004230F000400AD0C10D33
:1004100001F56071C0F3160042EA0151C2084007BD
:100420001143704700200146704701F0004330B48B
:1004300021F0004150EA010206D00A0DA2F56072D7
:10044000C1F31301002A02DC30BC00207047440FC6
:1004500044EAC104C100E01830BC00EBC25000F017
:1004600015B80000002801DBC0F10040002901DBC5
:10047000C1F1004181427047002801DBC0F100401A
:10048000002901DBC1F10041884270470029A8BF63
:100490007047401C490008BF20F00100704710B4AD
:1004A000B0FA80FC00FA0CF050EA010404BF10BC62
:1004B000704749B1CCF1200421FA04F411FA0CF18F
:1004C00018BF012121430843A3EB0C01CB1D4FEAC8
:1004D00000614FEA102042BF002010BC704700EBC3
:1004E000C35010440029A4BF10BC7047401C4900F1
:1004F00008BF20F0010010BC704710B5141E73F146
:10050000000408DA401C41F1000192185B411A43D3
:1005100001D120F0010010BD2DE9F04D92469B461F
:1005200011B1B1FA81F202E0B0FA80F220329046C5
:1005300000F052F804460F4640EA0A0041EA0B0177
:1005400053465A46084313D0114653EA010019D0C6
:10055000C8F140025046FFF7E5FD05460E465046FD
:100560005946424600F038F8084305D0012004E01F
:1005700020463946BDE8F08D0020054346EAE07686
:100580002C4337430A986305E40AA0EB08000022D5
:10059000FD0A44EA47540A3002D500200146E9E743
:1005A000010510196941DDE9084500196941BDE8F7
:1005B000F04DA2E7064C074D06E0E06840F001036D
:1005C00094E8070098471034AC42F6D3FFF792FD49
:1005D000CC400008EC400008202A04DB203A00FA56
:1005E00002F1002070479140C2F1200320FA03F38A
:1005F000194390407047000070B504460068816858
:10060000C943C9071CD1816821F00101816000F054
:1006100015FF05460FE000BF00F010FF401B022849
:1006200009D9A06A40F01000A062E06A40F0010021
:10063000E062012070BD20688068C043C007EBD035
:10064000002070BD10B50146406A826A12F0500F5A
:1006500005D0006A026BBDE8104008461047816A69
:1006600041F40071816201688968C1F34241072940
:100670000CD1017B51B9816A21F480718162816A58
:10068000C90403D4816A41F00101816200F010FBCA
:1006900010BD10B5406A816A41F040018162C16AB3
:1006A00041F00401C16200F005FB10BD10B5406AC5
:1006B00000F0FFFA10BD0000F8B5002604460096D1
:1006C00000688168C943C90728D0816841F00101E9
:1006D0008160134813490068B0FBF1F000E0401E50
:1006E00000900028FBD100F0A9FE054611E000BFF4
:1006F00000F0A4FE401B02280BD9A06A40F01000B5
:10070000A062E06A40F00100E06284F82460012009
:10071000F8BD20688068C043C007E9D10020F8BD5B
:100720003800002040420F002DE9F041224C002506
:100730002088FFF735FE214EF060B06034F81500D8
:10074000FFF72EFEB168FFF797FE04D234F81500CC
:10075000FFF726FEB06034F81500FFF721FEF168C0
:10076000FFF780FE04D234F81500FFF719FEF060A1
:100770006D1CFF2DE2DDF068FFF744FE104D4FF0D9
:10078000663422462B46FFF779FD6FF00B073A4699
:10079000FFF7E6FDFFF749FEF060B068FFF732FEB5
:1007A00022462B46FFF76AFD3A46FFF7D9FDFFF7D1
:1007B0003CFEB060BDE8F081CC06002004000020C3
:1007C00066660A40FEE730B590F840500124AC4020
:1007D000C56B6C60046863604368102B036803D0CA
:1007E00099600068C26030BD9A600068C16030BD29
:1007F0000C4910B5086901280ED10B4B4A6900203D
:1008000033F81040944208DC03EB400464889442BF
:1008100003DD48600120886110BD401C7F28EFDBAC
:1008200010BD000004000020CC06002070471020FE
:1008300000F00ABD202000F007BD70472DE9FF4FF2
:1008400083B004460520CDE90040DDF844B0002720
:100850004FF080093148109A07EB071110F811305A
:100860001278934240D100EB410A10989AF8011097
:100870004078814238D1049804990F3083B204F152
:100880000F0082B2204601F07DFC002600250AEB15
:10089000060800BFBBF1000F13D02149059808805E
:1008A00098F8021029FA05F0014203D02046049975
:1008B00001F0C2FA641C0098A4B2201A102826D0B5
:1008C0000AE098F8021029FA05F0014201D00598D3
:1008D00000E0069801F0D8FD6D1CEDB2082DD9D3CB
:1008E000761CF6B2202ED1D37F1C0198BFB287426E
:1008F000B0D30C484188008807B0491EBDE8F04FCE
:10090000401E8BB282B20021084601F03BBC049825
:10091000009C401C80B20490E2E70000583C0008B4
:10092000000000203C0000202DE9FF4F83B004466A
:100930000B20CDE90040DDF844B000274FF08009DE
:1009400007EB870000EB47113048109A10F8113080
:100950001278934240D100EB410A10989AF80110A6
:100960004078814238D104980499173083B204F159
:10097000170082B2204601F005FC002600250AEB94
:10098000060800BFBBF1000F13D02149059808806D
:1009900098F8021029FA05F0014203D02046049984
:1009A00001F04AFA641C0098A4B2201A182826D034
:1009B0000AE098F8021029FA05F0014201D00598E2
:1009C00000E0069801F060FD6D1CEDB2082DD9D352
:1009D000761CF6B2482ED1D37F1C0198BFB2874255
:1009E000AED30C484188008807B0491EBDE8F04FDF
:1009F000401E8BB282B20021084601F0C3BB0498AE
:100A0000009C401C80B20490E2E70000023D000818
:100A1000000000203C0000202DE9FF4F83B0044679
:100A20000120CDE90040DDF844B000274FF08009F7
:100A30003148109A07EB871110F811301278934261
:100A400040D100EB410A10989AF801104078814299
:100A500038D1049804991F3083B204F11F0082B288
:100A6000204601F08FFB002600250AEB060800BF98
:100A7000BBF1000F13D021490598088098F80210A7
:100A800029FA05F0014203D02046049901F0D4F977
:100A9000641C0098A4B2201A202826D00AE098F8F6
:100AA000021029FA05F0014201D0059800E00698ED
:100AB00001F0EAFC6D1CEDB2082DD9D3761CF6B21C
:100AC000802ED1D37F1C0198BFB28742B0D30C488F
:100AD0004188008807B0491EBDE8F04F401E8BB228
:100AE00082B20021084601F04DBB0498009C401CD6
:100AF00080B20490E2E700003040000800000020CF
:100B00003C0000202DE9FE4F161ACDE900104FF0F1
:100B100000085D1A47464FF0FF30002E02DD4FF00F
:100B2000010102E003D14FF000018B4602E0834651
:100B3000C6F10006002D02DD4FF0010002E003D1F6
:100B40004FF00000824602E08246C5F10005AE4249
:100B500001DD344600E02C46601C4FF00009029095
:100B600019E000980C9A81B2019880B200F018F850
:100B7000B0442F44A04504DD0198A8EB0408584474
:100B80000190A74203DD00983F1B5044009009F1FB
:100B900001001FFA80F902998945E2DDBDE8FE8F68
:100BA00010B5144601F0D8FA2046BDE8104001F017
:100BB0006BBC0000F8B50024009490F82420254672
:100BC000012A12D0012280F824204A681F23072A14
:100BD0000DD20668776B521E02EB820293409F4350
:100BE0000B6893401F43776319E00220F8BD066845
:100BF0000D2A0AD2376BD21F02EB820293409F4329
:100C00000B6893401F43376309E0F76A0D3A02EB24
:100C1000820293409F430B6893401F43F7620A6828
:100C2000072306680A2A0AD3F7680A3A02EB420247
:100C300093409F438B6893401F43F76008E03769F8
:100C400002EB420293409F438B6893401F433761FE
:100C50000A68102A01D0112A20D1124B02689A4248
:100C600017D193681B0219D4936843F4000393606F
:100C70000968102912D10C490C4A0968B1FBF2F13C
:100C800001EB8101490000E0491E00910029FBD1E0
:100C900004E0816A41F020018162012480F824503F
:100CA0002046F8BD002401403800002040420F00DB
:100CB00070477047704700002DE9F0414FF0000782
:100CC00004003D467ED0A06A002628B9E66284F87A
:100CD0002460204600F07EF82046FFF78DFCA16AD4
:100CE00001F01001014304D0A06A40F01000A0629E
:100CF00068E0A16A21F4885141F00201A1626268B2
:100D0000E169237B0A4347EA43010A43A1684FF4A0
:100D10008077B94208D0012906D0002194F814C088
:100D2000BCF1010F02D00AE03946F7E7F3B1A36A3C
:100D300043F02003A362E36A43F00103E362236804
:100D4000D3F804C02CF4694C4CEA010CC3F804C07D
:100D500023689968DFF870C001EA0C0111439960BB
:100D6000A168B9420BD0012909D00CE0DFF85CC0C2
:100D7000A3690CEB43330B4343F40061DFE7218AA3
:100D80000D05A5F580152168CB6A23F470032B436C
:100D9000CB62216889680E4B1940914208D1E66206
:100DA000A16A21F0020141F00101A162BDE8F081D8
:100DB000A06A20F0020040F01000A062E06A40F05B
:100DC0000100E0620120F1E7FDF7E1FF00E0FFFF35
:100DD000FE0E1FFF70B586B00025064600950195F2
:100DE0000295039500681A4988422ED119498869ED
:100DF00040F400708861886900F40070049088698C
:100E000040F0040088618869694600F0040004909D
:100E100001200090032001900F4800F01FFA104CB1
:100E20000E48C4E900058020C4E90250400020615A
:100E3000800060612020C4E90605204600F042F9E8
:100E400008B1FFF7FAFC3462666206B070BD0000BC
:100E50000024014000100240000801400800024048
:100E6000FC08002070B5044690F8240001280DD03D
:100E7000012084F824002046FFF71EFC02004FF0FA
:100E8000000005D084F82400104670BD022070BD1B
:100E9000A16A40F20123994341F48071A1621F4D80
:100EA00023681F49AB4218D10E6816F4702F14D076
:100EB000A66A46F48016A6620E68760505D5A66A6F
:100EC00026F4005646F48056A662A66AF6040AD5B1
:100ED000E66A26F00606E66206E0A66A26F48016B2
:100EE000A6625E68E9E7E06284F824006FF0020021
:100EF000186020688368C3F34243072B05D1A842DA
:100F000008D1096811F4702F04D0816841F4801170
:100F10008160B9E7816841F4A001F9E70028014048
:100F2000042401402DE9F047894604463B49006806
:100F30003B4F0E1D9046884201D0B84207D1306821
:100F400010F4702F03D001252846BDE8F08794F8EF
:100F5000240001280CD0012084F824002046FFF74B
:100F6000ABFB05004FF0000004D084F82400EBE751
:100F70000220EAE7A16A40F60162914341F48071E0
:100F8000A1622168B94218D1326812F4702F14D0CE
:100F9000A16A41F48011A1623168490505D5A16AB1
:100FA00021F4005141F48051A162A16AC9040AD51B
:100FB000E16A21F00601E16206E0A26A22F48012F1
:100FC000A2624968E9E7E06284F82400216A1548D2
:100FD0008862216A1448C862216A1448086321683B
:100FE0006FF0020008602068816841F480718160C0
:100FF000216843464A464C31206A00F0B9F820681F
:101000008168C1F342410729816803D041F480110E
:10101000816099E741F4A001FAE700000024014053
:101020000028014045060008AD06000893060008A8
:1010300010B5044690F82400012807D0012084F858
:1010400024002046FFF7D8FA10B10EE0022010BDB0
:101050002068816821F480718160206A00F00EF8B8
:10106000A16A30B141F04001A162002184F824104E
:1010700010BD21F4885141F00101F5E710B590F859
:1010800021100022022905D00421816380F820204C
:10109000012010BD01680B6823F00E030B6001688E
:1010A0000B6823F001030B6090F84030C46B012102
:1010B00001FA03F3636080F8211080F820201046C5
:1010C00010BD000030B528B308C8134914221944D4
:1010D000B1FBF2F18900C1631049816302214177BC
:1010E0001A6843F6F0718A43D0E900142143D0E92D
:1010F00002452C4321430469214344692143846907
:101100002143114319600021416301224277017795
:10111000084630BD012030BDF8FFFDBF0000024091
:1011200070B5044690F82000002501280CD001205D
:1011300084F8200094F821600020012E06D084F865
:1011400020000225284670BD022070BD022684F8CA
:101150002160A0632068066826F00106066020462C
:10116000FFF731FB2068016841F001010160E9E708
:1011700070B5044690F82000002501280CD001200D
:1011800084F8200094F821600020012E06D084F815
:1011900020000225284670BD022070BD022684F87A
:1011A0002160A0632068066826F0010606602046DC
:1011B000FFF709FBE06A00282068016802D041F0CF
:1011C0000E0106E021F0040101602068016841F091
:1011D0000A0101602068016841F001010160D9E75E
:1011E00070B5044600F02AF90546601C02D0044898
:1011F0000078044400F022F9401BA042FAD370BDED
:101200002C00002010B50446B420FFF7E9FF0C487D
:10121000046001200B49202C09D0102C06D1486015
:101220008868401E886001D50020886010BD086075
:101230008868401C88600B28F8DD0B20F5E700006B
:101240001404014020000020034910B50968014240
:1012500001D0FFF7D7FF10BD140401402DE9F84F6E
:10126000DFF8B891002409F1040A0AF1040B2346BF
:101270000F270BF1040EC9E00125A5402A40AA4220
:101280007DD1674ED1F804C0ACEB0608B44532D02E
:1012900014DCBCF1030F3AD009DCBCF1000F2AD0FA
:1012A000BCF1010F1CD0BCF1020F31D11DE0BCF12B
:1012B000110F17D0BCF1120F2AD119E0B8F5881F11
:1012C00019D006DCB8F5803F15D0B8F5801F1FD1C6
:1012D00011E0B8F5001F0ED0B8F5041F18D10AE0D0
:1012E000CB6815E0CB681B1D12E0CB6808330FE01C
:1012F000CB680C330CE08B682BB1012B4FF008034B
:1013000003D0456104E0042302E0056100E000230E
:10131000FF2A01D8064601E000F104064FEA8405E1
:1013200001D9A5F12005D6F8008007FA05FC28EAC6
:101330000C0803FA05F548EA0508C6F800804D6870
:10134000ED0062D5374DAE6946F00106AE61AD697C
:1013500024F0030605F001050095334D06EB050C5E
:10136000DCF80850A607360F07FA06F825EA080544
:10137000DFF8B880404503D14FF0000817E044E0A3
:10138000DFF8AC80404502D14FF001080FE0DFF8F4
:10139000A480404502D14FF0020808E0DFF89880B1
:1013A000404502D14FF0030801E04FF0040808FA6D
:1013B00006F848EA0508CCF808804D68D9F80060BE
:1013C000ED034D4601D5164300E096432E604D686F
:1013D000DAF80060AD03554601D5164300E09643A8
:1013E0002E604D68DBF80060ED025D4601D51643C6
:1013F00000E096432E604D68DEF80060AD02754651
:1014000001D5164300E096432E60641C0D682A4601
:10141000E5407FF431AFBDE8F88F000000040140E3
:1014200000001110001002400000014000080140BF
:10143000000C014000100140001401400148806888
:10144000704700002C000020024881680278114497
:10145000816070472C000020074810B5016841F0FA
:1014600010010160032000F075F8002000F006F87C
:1014700000F024F8002010BD0020024070B50D4D92
:1014800004464FF47A712878B1FBF0F00A490968F4
:10149000B1FBF0F000F062FB48B9102C07D200223B
:1014A0002146501E00F036F800206C6070BD01200F
:1014B00070BD00002C000020380000200C4808B54A
:1014C000816941F001018161816901F001010091AF
:1014D000C16941F08051C161C06900F08050009045
:1014E0000448416821F0E06141F00071416008BDAD
:1014F0000010024000000140002809DB00F01F023C
:10150000012191404009800000F1E020C0F8001165
:1015100070470000F0B40E4B1B680C46C3F3022367
:10152000C3F10705042D00D90425191D072901D28F
:10153000002300E0DB1E012606FA05F1491E2140CA
:1015400099409E40761E16403143F0BC01F0C8BB66
:101550000CED00E0064900F0070208684FF6FF03B3
:10156000184040EA0220034A104308607047000018
:101570000CED00E00000FA052DE9F843054600787F
:10158000354CC00754D0E0690026C00008D4E0699B
:1015900040F08050E061E069012600F0805000904A
:1015A0002E480168C90512D40168804641F4807153
:1015B0000160FFF743FF074605E000BFFFF73EFF6E
:1015C000C01B642823D8D8F80000C005F6D5206ACF
:1015D00010F4407021D0A98801F4407181421CD0E0
:1015E000206A1F49012220F440700A6000220A602C
:1015F0002062C00711D0FFF721FF074641F288386B
:1016000008E000BFFFF71AFFC11B414502D90320C4
:10161000BDE8F883206A8007F4D5206A696820F461
:101620004070084320621EB1E06920F08050E06104
:101630002878800705D56068A96820F440400843F1
:1016400060602878C00605D56068E96820F48000ED
:10165000084360600020DBE700100240007000409B
:10166000400442422DE9F0470F46050061D0434E49
:10167000306800F00700B84209D2306820F0070057
:1016800038433060306800F00700B84251D1286814
:101690003B4C810712D5400703D5606840F4E060F9
:1016A00060602878000703D5606840F4605060608F
:1016B0006068A96820F0F000084360602878C007DF
:1016C00028D06868012810D02168022810D0890726
:1016D00000292EDA616821F0030101436160FFF700
:1016E000ADFE804641F288390DE021688903EFE7BD
:1016F0008901EDE7FFF7A2FEA0EB0801494502D9F9
:101700000320BDE8F0876068696800F00C00B0EB6A
:10171000810FEFD1306800F00700B8420BD9306874
:1017200020F0070038433060306800F00700B8420E
:1017300001D00120E5E72878400705D56068E96811
:1017400020F4E060084360602878000706D56068F0
:10175000296920F4605040EAC100606000F038F868
:101760006168084AC1F30311515CC840064908602A
:1017700006480068FFF782FE0020C2E70020024012
:1017800000100240B2400008380000203000002065
:101790000448054900684968044AC1F30221515CC4
:1017A000C84070473800002000100240C2400008C6
:1017B0000448054900684968044AC1F3C221515CE4
:1017C000C84070473800002000100240C2400008A6
:1017D00012A185B00FC98DE80F0014A0144A00684B
:1017E00004905168134801F00C03042B10D0082B0F
:1017F0000ED1C1F38343C9031DF803000AD5516814
:1018000004AAC1F34041515C0A4A5043B0FBF1F0D5
:1018100005B0704708494843FAE700000203040591
:10182000060708090A0B0C0D0E0F1010010200002C
:101830000010024000127A0000093D002DE9F84F27
:10184000040070D02078C04DC00749D06868C0F34C
:101850008100012807D06868C0F38100022809D1FF
:101860006868C00306D52868800339D560680028F9
:10187000E7D035E06068B0F5803F0BD010B1B0F52F
:10188000A02F11D0286820F480302860286820F428
:10189000802002E0286840F480302860606890B1C1
:1018A000FFF7CCFD06460AE0286840F48020286057
:1018B000F0E700BFFFF7C2FD801B642873D82868DB
:1018C0008003F7D50CE0FFF7B9FD064605E000BF41
:1018D000FFF7B4FD801B6428F0D828688003F7D494
:1018E00020789A4E80074FF001094FF0000839D553
:1018F000686810F00C0F07D06868C0F381000228F8
:1019000009D16868C00306D42868800714D5206907
:10191000012808D110E02069B0B1C6F80090FFF7A7
:101920008DFD074605E00AE1FFF788FDC01B022890
:10193000C4D828688007F7D52868616920F0F800C6
:1019400040EAC10028600DE0C6F80080FFF776FD90
:10195000074604E0FFF772FDC01B022823D8286861
:101960008007F7D4207800072CD57948A169D9B130
:10197000C0F80090FFF762FD074604E0FFF75EFD48
:10198000C01B02280FD8686A8007F7D571484FF44A
:10199000FA510068B0FBF1F0009000BF0098411EC2
:1019A0000091FAD20EE080E0C0F80080FFF746FD1B
:1019B000074604E0FFF742FDC01B022875D8686A9D
:1019C0008007F7D42078400760D5E8690027C00079
:1019D00008D4E86940F08050E861E869012700F028
:1019E000805000905C480168C90513D401688346A3
:1019F00041F480710160FFF721FD824606E000BFDF
:101A0000FFF71CFDA0EB0A0064284ED8DBF80000AD
:101A1000C005F5D5E06801280AD008B1052813D023
:101A2000286A20F001002862286A20F0040002E001
:101A3000286A40F001002862E06841F2883B98B1D2
:101A4000FFF7FCFC82460BE0286A40F004002862A5
:101A5000EEE700BFFFF7F2FCA0EB0A0159455AD8A8
:101A6000286A8007F6D50CE0FFF7E8FC824605E01F
:101A7000FFF7E4FCA0EB0A0159454CD8286A80071F
:101A8000F6D41FB1E86920F08050E861E06988B3BE
:101A90006968C1F38101022944D00228C6F8608038
:101AA00004D0FFF7CBFC044638E034E0FFF7C6FC77
:101AB000074604E0FFF7C2FCC01B02282BD82868A9
:101AC0008001F7D4206AB0F5803F05D16868A1682D
:101AD00020F4003008436860D4E9080108436968CD
:101AE00021F4741108436860C6F86090FFF7A6FC03
:101AF000044606E025E000BFFFF7A0FC001B02281B
:101B000009D828688001F7D51BE000BFFFF796FCD5
:101B1000001B022802D90320BDE8F88F2868800145
:101B2000F4D40EE00128F7D06868226A00F480310E
:101B3000914204D1616A00F47010884201D0012002
:101B4000EAE70020E8E700000010024000004242FF
:101B500080044242380000200070004010B5401E52
:101B6000B0F1807F01D3012010BD4FF0E02460610F
:101B70000F21601701F0B4F80020A0610720206158
:101B8000002010BD70B590F83C20012A19D0012426
:101B900000F83C4F0222427050F83C3C5A689D6865
:101BA00022F070060A684968324325F0800529430F
:101BB0005A6050F83C2C9160447000210170084636
:101BC00070BD022070BD10B5040003D094F83D0034
:101BD00010B107E0012010BD002084F83C00204631
:101BE00000F00CF8022084F83D00211D206800F070
:101BF00087FF012084F83D00002010BD08B5006873
:101C00000649884208D10648C16941F00201C16114
:101C1000C06900F00200009008BD00000004004010
:101C200000100240022180F83D1001688A6802F02D
:101C30000702062A03D00A6842F001020A60012165
:101C400080F83D100020704770B5044690F83C00C5
:101C5000012817D0012584F83C50022084F83D006B
:101C60002068826822F0770222F47F42826008684E
:101C7000502830D00DDC20284DD005DC98B310283A
:101C80003BD148E0022070BD302844D0402834D1F8
:101C900039E0602828D0702806D0B0F5805F2CD0BD
:101CA000B0F5005F29D10AE0CB68D1E901212068B5
:101CB00000F05CFF2068816841F0770109E0CB68A3
:101CC000D1E90121206800F051FF2068816841F4CA
:101CD0008041816011E0CA684968206800F058FFBF
:101CE0005021206807E016E0CA684968206800F0C3
:101CF00060FF6021206800F043FF84F83D50002021
:101D000084F83C0070BDCA684968206800F040FF54
:101D100040212068EFE7226801461046EBE770B5E6
:101D2000040004D094F83900002510B106E0012029
:101D300070BD84F83850204600F022F8242084F842
:101D400039002068C16821F40051C160204600F0CC
:101D500043FF2068016921F49041016120684169D5
:101D600021F02A0141612068C16841F40051C1603D
:101D7000E563202084F8390084F83A00002070BD23
:101D800030B585B000240094019402940394006857
:101D90001449884224D11448816941F48041816109
:101DA000816901F480410491816941F004018161FC
:101DB00080690E4D00F0040004904FF40070009014
:101DC000022001900320039069462846FFF746FA57
:101DD0002815CDE90004694628460294FFF73EFA2B
:101DE00005B030BD0038014000100240000801403D
:101DF000FEE70000F0B50F4C074600216088401E4A
:101E000083B22088401E82B2084600F0BBF900264B
:101E10000BE0002504E0384600F036FB6D1CADB247
:101E20006088A842F7D8761CB6B22088B042F0D8B5
:101E3000F0BD00003C00002000B500F08DF9034823
:101E400000885DF804EB00F01FBB000000000020DC
:101E50002DE9F041141A641CA6B25C1A641C5B1EC6
:101E6000521EA7B29BB292B2DDF8188000F08AF938
:101E700000250AE0002404E0404600F005FB641C55
:101E8000A4B2B442F8D36D1CADB2BD42F2D3064841
:101E900041880088491EBDE8F041401E8BB282B2E5
:101EA0000021084600F06EB93C00002030B5124811
:101EB00085B0816941F008018161816901F0080103
:101EC0000491816941F0040181618069012500F07C
:101ED00004000490F020CDE9000503246946039432
:101EE0000648FFF7BBF9009469460548019503943D
:101EF000FFF7B4F905B030BD001002400008014002
:101F0000000C014010B5FFF7D1FF00F013F91120CC
:101F100000F0CEFA7820FFF763F9B12000F0C8FA9C
:101F2000012000F0A3FA2C2000F0A0FA2D2000F0F0
:101F30009DFAB22000F0BCFA012000F097FA2C20A4
:101F400000F094FA2D2000F091FAB32000F0B0FADE
:101F5000012000F08BFA2C2000F088FA2D2000F0F0
:101F600085FA012000F082FA2C2000F07FFA2D2063
:101F700000F07CFAB42000F09BFA072000F076FA1B
:101F8000C02000F095FAA22000F070FA022000F0C4
:101F90006DFA842000F06AFAC12000F089FAC520A9
:101FA00000F064FAC22000F083FA0A2000F05EFA22
:101FB000002000F05BFAC32000F07AFA8A2000F0DB
:101FC00055FA2A2000F052FAC42000F071FA8A2053
:101FD00000F04CFAEE2000F049FAC52000F068FA53
:101FE0000E2000F043FA362000F062FAC82000F01C
:101FF0003DFAE02000F05CFA0F2000F037FA1A20DA
:1020000000F034FA0F2000F031FA182000F02EFA18
:102010002F2000F02BFA282000F028FA202000F0D2
:1020200025FA222000F022FA1F2000F01FFA1B20C0
:1020300000F01CFA232000F019FA372000F016FAFD
:10204000002000F013FA072000F010FA022000F040
:102050000DFA102000F00AFAE12000F029FA0F2012
:1020600000F004FA1B2000F001FA0F2000F0FEF946
:10207000172000F0FBF9332000F0F8F92C2000F0D5
:10208000F5F9292000F0F2F92E2000F0EFF93020C8
:1020900000F0ECF9302000F0E9F9392000F0E6F921
:1020A0003F2000F0E3F9002000F0E0F9072000F005
:1020B000DDF9032000F0DAF9102000F0D7F92A202A
:1020C00000F0F6F9002000F0D1F9002000F0CEF980
:1020D000002000F0CBF97F2000F0C8F92B2000F0A1
:1020E000E7F9002000F0C2F9002000F0BFF900205D
:1020F00000F0BCF99F2000F0B9F9F02000F0D8F909
:10210000012000F0B3F9F62000F0D2F9002000F031
:10211000ADF93A2000F0CCF9052000F0A7F929200C
:1021200000F0C6F900F01CF801490220086010BD5B
:10213000100C014010B50748012404606420FFF72B
:102140004FF80448001F0460BDE810403220FFF73C
:1021500047B80000140C01400B46024600F012B8CC
:1021600007482C210181002181718021018041805B
:102170002A2141812B218181C821362000F0AEB96E
:102180003C0000202DE9F041DFF8588007461C464E
:1021900015460E46B8F80A0000F08AF9380A00F031
:1021A00065F9BF1CF8B200F061F9280A00F05EF989
:1021B000AD1CE8B200F05AF9B8F80C0000F078F95C
:1021C000300A00F053F9F61CF0B200F04FF9200A83
:1021D00000F04CF9E41CE0B200F048F9BDE8F04131
:1021E00000F076B93C0000202DE9FF4F83B08B460C
:1021F00010A9DFF8E89091E83100203800F0FF08DE
:102200000BEB0400401E83B20398924600EB54008F
:10221000B9F80010401E019182B259460398FFF7A9
:10222000B1FF05B3002546E00C2C05D02C4800EB8F
:1022300008100026475D11E02A4808EB480100EB32
:102240008100F6E7F80702D00AF0FF0001E00698E7
:10225000C0B200F00BF97F08761CF6B2B6EB540F53
:10226000F0D36D1CEDB2A542DED326E00C2C08D0D5
:102270001B4800EB08100026475D0BEB05000090A3
:1022800014E0184808EB480100EB8100F3E700BFB9
:10229000A9F800A0F80706D0009881B2039830444E
:1022A00080B2FFF7C9FD7F08761CF6B2B6EB540F7B
:1022B000EED36D1CEDB2A542D8D30198A9F8000069
:1022C00009484188008807B0491EBDE8F04F401E0C
:1022D0008BB282B200210846FFF754BF00000020F5
:1022E00028340008B42F00083C0000202DE9FE43EC
:1022F000044690460E461046FEF757F805460C2752
:102300002A46012331462046009700F027F8012293
:10231000022110A08DE80700301F81B2601D80B23D
:102320004FF6FF73002200F02BFB2846FEF72FF834
:102330004146FDF76EFF0849FDF76EFFFEF74EF8C8
:1023400002460934A0B202233146009700F04AF851
:10235000BDE8FE832E0000000000C8422DE9FF4FBB
:1023600083B00026DDF840801D4634464FF0010A58
:102370004FEA5807DFF86490DFF864B028E0281BC4
:10238000401EC1B20A2000F00DFE0599B1FBF0F02D
:102390000A21B0FBF1F201FB120026B9691E8C4242
:1023A00001DA28B101263030C0B28DE8010502E023
:1023B00020228DE804050398B9F8003007FB0400DB
:1023C00080B2BBF800200499FFF70EFF641CE4B252
:1023D000AC42D4D307B0BDE8F08F0000020000206B
:1023E000000000202DE9FF4F83B00026DDF840807B
:1023F0001D4634464FF0010A4FEA5807DFF8649053
:10240000DFF864B028E0281B401EC1B20A2000F0AB
:10241000C9FD0599B1FBF0F00A21B0FBF1F201FB17
:10242000120026B9691E8C4201DA28B1012630302B
:10243000C0B28DE8010502E030228DE80405039862
:10244000B9F8003007FB040080B2BBF80020049903
:10245000FFF7CAFE641CE4B2AC42D4D307B0BDE8B7
:10246000F08F0000020000200000002030B5054978
:1024700010240C60034D40212D1F296000F02AF923
:102480002C6030BD1408014070B504460748102583
:102490000560064E4020361F3060200A00F01AF911
:1024A000E0B200F017F9356070BD0000140801407B
:1024B00010B5064910240C6040220A60C0B200F03A
:1024C00009F90248001F046010BD00001408014013
:1024D00001480089FFF7ECBF3C00002010B50C4616
:1024E000FFF7E6FFE0B2BDE81040FFF7BFBF000016
:1024F0003EB5002410480094019402940D49846074
:10250000016004730475012505614FF400214460E6
:10251000C161FEF7D1FB08B1FEF78FF9CDE90045A7
:10252000694605480294FEF745FB002801D0FEF7F6
:1025300084F93EBD00240140CC080020054808B5C0
:10254000416941F001014161406900F001000090E2
:1025500008BD00000010024010B586B000200390B6
:102560001F48816941F020018161816901F02001EA
:102570000491816941F004018161816901F00401E4
:102580000491816941F0080181618069164C00F075
:102590000800049010200090124801900220029040
:1025A00069462046FEF75AFE202000900F48019011
:1025B0000120029069462046FEF750FE00220121CC
:1025C0000A20FEF7A7FF0A20FEF796FF002201214E
:1025D0001720FEF79FFF1720FEF78EFF06B010BDF5
:1025E0000010024000001110000C014000002110FA
:1025F00010B586B000241748009401940294039407
:10260000049413490594016040F2CF21C0E90114FC
:102610000F21C0E903148461FFF7D5FA08B1FEF772
:102620000CF94FF48050009069460A48FFF70CFB04
:1026300008B1FEF702F92020CDE9040404A90548F9
:10264000FFF7A0FA002801D0FEF7F7F806B010BD9A
:1026500000040040400900200C4810B50A49016000
:102660004FF4E1314160002181600C22C160C0E97A
:1026700004128161C161FFF752FB002803D0BDE85D
:102680001040FEF7DAB810BD003801408009002084
:10269000FEE77047704708B500203F237F221946A8
:1026A0000090FEF72FFA00223E211F20FEF778FA55
:1026B00000223E213F20FEF773FA00223E215F20D8
:1026C000FEF76EFA00223E21BDE808407F20FEF7AB
:1026D00067BA000070B5094B082180241D1D202217
:1026E000060601D51C6000E02C602A601A604006D6
:1026F000000E491E11F0FF01F2D170BD100801401B
:10270000704700002DE9FE4F7149022601250A1D80
:102710000C274FF0080B4FF0030941F61F434FF60B
:10272000FF744FF00F0C40F2CF2A4FF0470E0C28E9
:1027300072D2DFE800F006152937455362728190A6
:102740009FAF5920086013606423802241215A20E2
:102750000094FFF77DFB04234FF47A7200970DE09D
:102760002720086013606423802241215A200094AE
:10277000FFF76EFB03234FF4FA72009741215A20B2
:10278000FFF7ECFD53A098E0C1F800C0136064238C
:10279000802241215A200094FFF75AFB0323C822CC
:1027A0000097EBE7C1F800B0136064238022412159
:1027B0005A200094FFF74CFB032364220097DDE7C7
:1027C000C1F8009013606423802241215A200094B4
:1027D000FFF73EFB032332220097CFE7C1F800C08A
:1027E000C2F800A06423802241215A200094FFF700
:1027F0002FFB032314220097C0E7C1F800B0C2F8F2
:1028000000A06423802241215A200094FFF720FB7E
:1028100003230A220097B1E758E0C1F80090C2F8FC
:1028200000A06423802241215A200094FFF710FB6E
:10283000032305220097A1E7C1F800C0C2F800E019
:102840006423802241215A200094FFF701FB0323D7
:102850000222009792E70D604FF48C7010606423A1
:10286000802241215A200094FFF7F2FA032301222B
:10287000009783E7C1F80090C2F800E0642380224B
:1028800041215A200094FFF7E3FA03234FF4FA7230
:1028900000970DE0C1F800C006201060642380227C
:1028A00041215A200094FFF7D3FA0323C82200974E
:1028B00041215A20FFF752FD07A0CDE9000623462B
:1028C00000223D2102956E2000F05AF8BDE8FE8FEF
:1028D000280400406D73000075730000FEB5254D9F
:1028E000254F00244FF6FF76A2B2A0B23D2300216F
:1028F0000096FEF707F96868E2B220443C2137F8F9
:10290000100000F0C7F9641C7F2CEDDB3446502327
:102910003222412100200096FFF79AFAFDF704FFCA
:102920000C270097042341210120EA68FFF7DEFC11
:10293000002646231B22194617200096FEF7E2F8D0
:102940000097042341211E20AA68FFF7CFFC012035
:102950000AA1CDE900100290234600223D21332038
:1029600000F00EF84FF400710348FDF7F2FB2E6003
:102970006E60FEBD04000020CC0600207600000042
:102980002DE9FF4F83B00446DDE9106581463078BC
:102990002F4FDDF848A09B468846002854D0398840
:1029A000A1EB5500A0424FDB7888421B42454BDB30
:1029B0003078802815D9481BA04245DB424543DBCF
:1029C000202D35D0CDE9006A059A182D5B46414689
:1029D000204636D0FDF732FF601984B216F8020F98
:1029E000DBE70D2811D00C2D16D0102D14D010229D
:1029F0008DE805045B4641462046059AFFF7F4FB47
:102A00000834A4B216F8010FC7E708EB05001FFA57
:102A100080F84C46761CF5E78DE821045B4641467C
:102A20002046059AFFF7E0FB04EB550084B2E9E786
:102A3000CDE9006A5B4641462046059AFDF7ECFF6A
:102A4000CAE7FDF771FFC7E707B0BDE8F08F0000E8
:102A50003C000020FEF7F8BC30B593B02821684652
:102A6000FDF777FB14210AA8FDF773FB0024012072
:102A70000F9410941194010412948DE813000490A3
:102A80004FF4E010CDE90810022507956846FEF7DF
:102A9000D5FE0F20CDE90A056802CDE90C400221E0
:102AA0000AA80E94FEF7DEFDA80311900F950FA85B
:102AB000FEF762FD13B030BD0D48016841F0010121
:102AC000016041680B4A1140416001680A4A1140A7
:102AD0000160016821F480210160416821F4FE0158
:102AE00041604FF41F0181600449C00308607047D2
:102AF000001002400000FFF8FFFFF6FE08ED00E0C6
:102B0000F0B50268164B174C174D4FF080479842AE
:102B100005D0B84203D0A04201D0A84203D122F090
:102B200070064A683243984205D0B84203D0A042AA
:102B300001D0A84203D122F44074CA6822434C69F0
:102B400022F08002224302608A68C2620A688262BE
:102B5000984201D10969016301214161F0BD000082
:102B6000002C0140000400400008004010B58468BB
:102B700042EA032224F47F440A432243826010BDC8
:102B8000826822F070020A4342F0070181607047B8
:102B900010B5036A046A24F001040462846924F015
:102BA000F00444EA021423F00A020A438461026238
:102BB00010BD10B5036A23F0100303628369046A31
:102BC00023F4704343EA023224F0A00343EA0111E4
:102BD0008261016210BD00002DE9F04104460068E9
:102BE0000169E26821F44051114301612169A06843
:102BF0000843616908432168CA6841F20C639A433B
:102C00000243CA6020684169A26921F440711143FE
:102C100041611E49206864253226884202D1FEF7B0
:102C2000C7FD01E0FEF7B4FD00EBC00101EB0011B0
:102C300060686FF018078000B1FBF0F2B2FBF5F2AC
:102C4000B1FBF0F37A4303EB8202B1FBF0F306EB46
:102C50000212B2FBF5F2B3FBF5F302F0F00202EB65
:102C60000312B1FBF0F3B1FBF0F0B0FBF5F07843E9
:102C700003EB800006EB0010B0FBF5F0216800F0DC
:102C80000F0010448860BDE8F0810000003801406A
:102C9000FEE7000038B500242346984203DB03F129
:102CA0005205A84202DB5233641CF6D5081B0B4CBC
:102CB000C3B20949206800280B5408DD00250844E8
:102CC000009510F8011C501E80B2FDF71BFF206814
:102CD000401C206038BD00004C060020040000208D
:102CE0000907090E002804DB00F1E02080F8001439
:102CF000704700F00F0000F1E02080F8141D7047CD
:102D000002E008C8121F08C1002AFAD170477047B4
:102D1000002001E001C1121F002AFBD170472DE9FC
:102D2000F05F15461C46DDF828B00E46074601EB5D
:102D3000040800EB050A1FFA88F11FFA8AF05A46C8
:102D4000FDF72EFFA7EB05091FFA88F11FFA89F09E
:102D50005A46FDF725FFA6EB04081FFA88F11FFA73
:102D60008AF05A46FDF71CFF1FFA88F11FFA89F016
:102D70005A46FDF715FF06EB050807EB04091FFA95
:102D800088F11FFA89F05A46FDF70AFF3C1B1FFA2B
:102D900088F1A0B25A46FDF703FF751BA9B21FFACE
:102DA00089F05A46FDF7FCFEA9B2A0B25A46BDE82A
:102DB000F05FFDF7F5BE2DE9F84F90461E468946B7
:102DC00082460024724203200A9900EB4205C9B9E9
:102DD00030E0274608E03B46224649465046CDF8BB
:102DE0000080FFF79CFF7F1CB742F4DD002D03DA63
:102DF00005EB8405AD1D04E0A01B05EB80050A353D
:102E0000761E641CB442E4DDBDE8F88F33462246EA
:102E100049465046CDF80080FFF781FF002D03DAC8
:102E200005EB8405AD1D04E0A01B05EB80050A350C
:102E3000761E641CB442E9DDE6E700001FB5FEF72C
:102E40000BFBFFF709FEFFF787FBFFF777FBFFF7A9
:102E50004FFBFFF701FCFFF7CBFB4948FEF702F8F9
:102E60004848FEF7DFFEDFF824A14FF480794B4697
:102E7000454A51464648FEF753F9022203A9404805
:102E8000FEF750F8FFF73EF84FF6FF742046FEF7C6
:102E9000B1FFFFF700FC0C20009003231422412116
:102EA0005A20FFF75BFA02203AA1CDE90010012673
:102EB0002346002202963D216E20FFF761FD364F2A
:102EC000DFF8D880364C00253868800718D52C48A4
:102ED000FEF7AEF8FDF78CFCD8F80000D0B3FFF792
:102EE000FDFCFFF705FB4B46274A51462848FEF7F5
:102EF00017F9022203A92248FEF714F8C8F8005077
:102F0000206888B11E48FEF793F8A068FFF7FAFB27
:102F10004B461D4A51461E48FEF702F9022203A9FC
:102F20001748FDF7FFFF256060680028CCD01448E3
:102F3000FEF77EF8A068FFF7E5FB4B46124A5146C4
:102F400013486560FEF7ECF8022203A90C48FDF770
:102F5000E9FFB9E7FFE703234FF478420621782021
:102F60000096FFF728FF4B46074A51460848FEF7F0
:102F7000D7F8022203A90248FDF7D4FFC0E70000FA
:102F8000CC08002040090020CC0600204C24014041
:102F9000FC0800206D730000000002401C000020AF
:102FA000200000200246012000E05043491EC9B223
:102FB000FBD270470000000000000000000000008D
:102FC00000000404040404040004000000140A0ABD
:102FD0000000000000000000000014143F140A3F2D
:102FE0000A0A000000041E1505060C14150F040043
:102FF000000012150D0A142C2A1200000000040A09
:103000000A1E15150936000000020201000000002A
:103010000000000000201008080808080810200020
:103020000002040808080808080402000000000460
:10303000150E0E150400000000000404041F040413
:103040000400000000000000000000000002020177
:1030500000000000001F0000000000000000000051
:10306000000000000002000000100808080404022C
:103070000202010000000E1111111111110E0000C9
:103080000000040604040404040E000000000E11F5
:1030900011080402011F000000000E11100C101096
:1030A000110E00000000080C0A0A091E0818000092
:1030B00000001F01010F1010110E000000000E098A
:1030C000010F1111110E000000001F090804040473
:1030D0000404000000000E11110E1111110E000069
:1030E00000000E1111111E10120E00000000000051
:1030F00004000000000400000000000000040000C4
:10310000000404000020100804020408102000003D
:10311000000000001F00001F000000000002040863
:10312000102010080402000000000E111108040411
:103130000004000000000E111915151D011E0000ED
:10314000000004040C0A0A1E1233000000000F12D3
:10315000120E1212120F000000001E1101010101D7
:10316000110E000000000F1212121212120F0000B6
:1031700000001F120A0E0A02121F000000001F1298
:103180000A0E0A020207000000001C120101391198
:10319000120C000000003312121E12121233000033
:1031A00000001F0404040404041F000000003E0883
:1031B0000808080808090700000037120A060A0A6A
:1031C000123700000000070202020202223F000044
:1031D00000001B1B1B1B15151515000000003B12E2
:1031E00016161A1A1217000000000E1111111111F3
:1031F000110E000000000F12120E02020207000062
:1032000000000E1111111117190E180000000F12F5
:10321000120E0A121237000000001E1101060810DB
:10322000110F000000001F1504040404040E000028
:103230000000331212121212120C0000000033129E
:10324000120A0A0C0404000000001515150E0A0AE3
:103250000A0A000000001B0A0A04040A0A1B0000F4
:1032600000001B0A0A040404040E000000001F09E9
:1032700008040402121F0000001C040404040404D7
:1032800004041C00000202020404080808100000E4
:10329000000E08080808080808080E0000040A00C4
:1032A000000000000000000000000000000000001E
:1032B0000000003F000400000000000000000000CB
:1032C00000000000000C121C123C00000000030271
:1032D000020E1212120E000000000000001C12026A
:1032E000021C000000001810101C1212123C0000FA
:1032F00000000000000C121E021C00000000380438
:10330000041E0404041E000000000000003C120C17
:10331000021E221C00000302020E121212370000CD
:103320000000040000060404040E00000000080071
:10333000000C08080808080700000302023A0A0EF9
:10334000123700000000070404040404041F0000F6
:1033500000000000000F151515150000000000000A
:10336000000F12121237000000000000000C1212B1
:10337000120C000000000000000F1212120E0207D3
:1033800000000000001C1212121C10380000000087
:10339000001B06020207000000000000001E020CD5
:1033A000101E000000000004040E040404180000B5
:1033B00000000000001B1212123C00000000000080
:1033C0000037120A0C040000000000000015150E62
:1033D0000A0A000000000000001B0A040A1B00008B
:1033E000000000000037120A0C0404030000000073
:1033F000001E0804041E000000180808080408083D
:103400000808180008080808080808080808080834
:10341000000604040408040404040600022518003D
:10342000000000000000000000000000000000009C
:103430000000000000000000000000080808080864
:10344000080800001818000000486C241200000052
:1034500000000000000000000000002424247F126F
:1034600012127F12121200000000081C2A2A0A0CF5
:103470001828282A2A1C08080000002225151515DE
:103480002A585454542200000000000C1212120A50
:1034900076252911916E0000000606040300000045
:1034A0000000000000000000004020101008080884
:1034B000080808101020400000020408081010102E
:1034C00010101008080402000000000008086B1C1F
:1034D0001C6B080800000000000000000808080835
:1034E0007F0808080800000000000000000000003D
:1034F00000000000060604030000000000000000B9
:10350000FE000000000000000000000000000000BD
:10351000000000000606000000008040402020104F
:10352000100808040402020000000018244242426D
:103530004242424224180000000000080E08080819
:1035400008080808083E00000000003C42424220F3
:1035500020100804427E00000000003C4242201877
:1035600020404042221C000000000020302824247B
:1035700022227E20207800000000007E0202021A33
:1035800026404042221C0000000000382402021A9B
:1035900026424242241800000000007E2222101021
:1035A00008080808080800000000003C42424224C5
:1035B00018244242423C00000000001824424242CB
:1035C00064584040241C000000000000000018184F
:1035D00000000000181800000000000000000008B3
:1035E000000000000008080400000040201008044B
:1035F00002040810204000000000000000007F00CE
:1036000000007F00000000000000000204081020FD
:1036100040201008040200000000003C42424640E6
:1036200020101000181800000000001C225A5555E8
:1036300055552D42221C00000000000808181414E3
:10364000243C224242E700000000001F2222221EEA
:1036500022424242221F00000000007C424201013F
:1036600001010142221C00000000001F22424242D0
:1036700042424242221F00000000003F4212121E3E
:1036800012120242423F00000000003F4212121E8E
:1036900012120202020700000000003C2222010177
:1036A00001712122221C0000000000E74242424238
:1036B0007E42424242E700000000003E080808083F
:1036C00008080808083E00000000007C10101010D8
:1036D000101010101010110F0000007722120A0EA7
:1036E0000A121222227700000000000702020202E2
:1036F00002020202427F00000000007736363636B2
:103700002A2A2A2A2A6B0000000000E346464A4A79
:1037100052525262624700000000001C22414141A7
:1037200041414141221C00000000003F4242424210
:103730003E020202020700000000001C224141413B
:1037400041414D53321C60000000003F4242423E66
:103750001212222242C700000000007C42420204F2
:1037600018204042423E00000000007F490808083F
:1037700008080808081C0000000000E74242424216
:1037800042424242423C0000000000E74242222402
:1037900024141418080800000000006B4949494926
:1037A0005555362222220000000000E7422424184A
:1037B0001818242442E70000000000772222141485
:1037C00008080808081C00000000007E21201010D6
:1037D00008040442423F000000780808080808086E
:1037E0000808080808087800000002020404080815
:1037F0000810102020204040001E10101010101043
:103800001010101010101E000038440000000000BE
:1038100000000000000000000000000000000000A8
:1038200000000000000000FF00060800000000008B
:103830000000000000000000000000000000003C4C
:103840004278444242FC0000000000030202021AD7
:1038500026424242261A0000000000000000003804
:1038600044020202443800000000006040404078FA
:103870004442424264D80000000000000000003CC6
:10388000427E0202423C0000000000F08808087EF0
:1038900008080808083E0000000000000000007C46
:1038A00022221C023C42423C000000030202023A77
:1038B0004642424242E700000000000C0C00000EAD
:1038C00008080808083E00000000003030000038FA
:1038D000202020202020221E00000003020202726D
:1038E000120A1612227700000000000E08080808CD
:1038F00008080808083E0000000000000000007FE3
:103900009292929292B70000000000000000003BEB
:103910004642424242E70000000000000000003C36
:1039200042424242423C0000000000000000001BF6
:1039300026424242221E02070000000000000078DA
:1039400044424242447840E000000000000000771A
:103950004C040404041F0000000000000000007C70
:1039600042023C40423E0000000000000008083EC9
:10397000080808080830000000000000000000638C
:103980004242424262DC000000000000000000E70A
:10399000422424140808000000000000000000EB8E
:1039A0004949555522220000000000000000007621
:1039B00024181818246E000000000000000000E722
:1039C0004224241418080807000000000000007EAC
:1039D00022100808447E000000C020202020201073
:1039E000202020202020C0001010101010101010D7
:1039F0001010101010101010000608080808081009
:103A000008080808080806000C32C2000000000080
:103A100000000000000000000000000000001FE0A7
:103A20001FC06FD077B07030703070307030703031
:103A300070302010703070307030703070307030F6
:103A400067D06FE01FE01FE00000000000003800BA
:103A5000780036002E000E000E000E000E000E0044
:103A60000400000004000E000E000E000E000E0008
:103A70000E000E000E0004000000000000003FF0E9
:103A80007FE07FE03FD00030003000300030003079
:103A90001FD01FE02FE077E0700070007000600022
:103AA0006FF05FF03FF03FF00000000000003FF0DB
:103AB0007FF07FE03FD00030003000300030003039
:103AC0003FB07FD07FD03FB00030003000300030BA
:103AD0003FD07FE07FF03FF00000000000002010AA
:103AE00070307030703070307030703070307030D6
:103AF00037B00FD00FD007B00030003000300030AA
:103B000000300030003000100000000000001FF006
:103B10005FF06FF077F070007000700070003F8011
:103B20001FC01FC00FB00030003000300030003028
:103B30003FD07FD07FE03FE00000000000001FF09A
:103B40001FF06FF077F07000700070007000700070
:103B500077C02FC06FD077B0703070307030703059
:103B600067D06FE01FE01FE00000000000003FE0B2
:103B70007FE07FD03F9000300030003000300030D8
:103B800000300010001000300030003000300030F5
:103B900000300030003000100000000000001FE086
:103BA0001FC06FD077B070307030703070307030B0
:103BB00077B02FD06FF077B07030703070307030D9
:103BC00067D06FE01FE01FC00000000000001FE092
:103BD0001FC06FD077B07030703070307030703080
:103BE0006FB00FD00FF00FB0003000300030003059
:103BF0003FD07FE07FE03FC00000000000000000F9
:103C000000000000000000006000600020000000D4
:103C100000000000000000002000600060000000C4
:103C20000000000000000000000000000000000094
:103C30000000000000000000000000000000000084
:103C40000000000000000000000000003C003C00FC
:103C50003C00000000000000CFB50000000C3FF861
:103C6000030006380C701FC0038C0E0C3FFE0DB60F
:103C70000D98199C318C31866786CDB30000000009
:103C800018301BFF306036CC6CCC7D8619FE18DBFB
:103C900030D87FD870DB019B1F9B771FBCE00000F2
:103CA000000006C036FF36C0378037B03718060C24
:103CB00000003FFE36663666366636667FFFBFD842
:103CC000000000003060306037FF7EFB379E338C91
:103CD0003F06380031FC70603060306030607FFF3C
:103CE000A1E6C00023E82C18D808100830003000E6
:103CF0003000300030003000100018080C1003E0D5
:103D00000000CEC20000000000001000000C7FF098
:103D1000044020044020014020027FE06240203225
:103D20004020124020047FE004000005001004FF42
:103D3000F8088910788910188910188910188910C6
:103D40001889101889160776E8000000CAAA000032
:103D500000000000100010087FF80C6010046010D4
:103D6000016010427FF03260101A6010127FF00480
:103D7000690004088005088C08888C18C8983848A1
:103D8000901868A01048C010088030088010088C77
:103D900003F770000000B6C8000000001000000823
:103DA00000000C080FFFFC0840000830C008208805
:103DB00008209C0FFFE0082080082080083F800832
:103DC000000019FFE01820C0102080101180100B97
:103DD00000200600201B804060FE47801800000085
:103DE000B5E70000000000000018000010000010FF
:103DF000000010000FFFF00810200810200810200D
:103E00000810200FFFE008102008102008102008DC
:103E100010200FFFE008100000100800100800102C
:103E20000400180C000FF8000000D1B900000000D9
:103E300000000000180FFFFC0C00000C0C000C0C24
:103E4000000C0C000C0C000C0C000C0C000DFFF016
:103E50000C0C000C0C00080C80080C40080C6008CE
:103E60000C30100C20100C00200C0C27F3F040003C
:103E700000000000C1F70000000008000006000874
:103E8000020804FFFC060400000400010840411081
:103E900020312030127FD01200100464600464408E
:103EA000046440086440786440184440184444184E
:103EB000C44418844419047E060400000000A1E6EE
:103EC0000000000000000000000C0000121F801223
:103ED00030681260180CC01800800801800801804A
:103EE000000180000180000180000180000080004E
:103EF00000C00000C0100060200038C0000F0000AB
:103F00000000000000000000A3BA00000000000054
:103F100000000000000000000000000000000000A1
:103F20000000000000000000000000000000000091
:103F3000001C00001C00000C00000000000000003D
:103F40000C00001C00001C0000000000000000002D
:103F50000000A3A500000000000000000000000019
:103F60000700180880300880600880C00881800839
:103F700081000882000504000208000011E0002111
:103F80001000411000831001031002011004011001
:103F90000800E0000000000000000000A3D60000C0
:103FA000000000000000000000000FC1F00300400E
:103FB00003004001008001808001810000C10000F9
:103FC000C3000062000062000024000034000018FA
:103FD00000001800001800000000000000000000B1
:103FE000000000000000A3C100000000000000006D
:103FF00000000000000000000800001800001C0085
:10400000002C0000240000660000460000C30000F1
:10401000830000FF000101800101800200C0020056
:10402000C00F83F00000000000000000000000004E
:10403000D7D60000000000060000000300000000CA
:10404000C0000001C0C0000107C00001FF00021F46
:10405000FE0007F01C0007C070000F00E0000E0318
:10406000F0001C0FF0003C0F70003C00E000180056
:10407000C0000000C0000000C000000060000000A0
:104080002000000037000001FF00007FF80007F863
:1040900030001F8030000080300000C03000006021
:1040A00060000018E000000FC000000600000000E3
:1040B00000000000000000000000010203040607E9
:1040C000080900000000010203040000EC400008A1
:1040D000000000203C000000002D000828410008DE
:1040E0003C000020840D0000102D00080000FFFFA0
:1040F0000000000000000000000000000000FA4482
:1041000001000000F40100000000000000000000B9
:104110000000000005000000010000001000000089
:08412000000000000024F4007F
:04000005080000ED02
:00000001FF
